{
    "contractName": "UsersContract",
    "abi": [
        {
            "constant": false,
            "inputs": [
                {
                    "name": "name",
                    "type": "string"
                },
                {
                    "name": "surName",
                    "type": "string"
                }
            ],
            "name": "join",
            "outputs": [],
            "payable": false,
            "stateMutability": "nonpayable",
            "type": "function"
        },
        {
            "constant": true,
            "inputs": [
                {
                    "name": "addr",
                    "type": "address"
                }
            ],
            "name": "getUser",
            "outputs": [
                {
                    "name": "",
                    "type": "string"
                },
                {
                    "name": "",
                    "type": "string"
                }
            ],
            "payable": false,
            "stateMutability": "view",
            "type": "function"
        },
        {
            "constant": true,
            "inputs": [],
            "name": "totalUsers",
            "outputs": [
                {
                    "name": "",
                    "type": "uint256"
                }
            ],
            "payable": false,
            "stateMutability": "view",
            "type": "function"
        }
    ],
    "bytecode": "608060405234801561001057600080fd5b50610535806100206000396000f3006080604052600436106100565763ffffffff7c010000000000000000000000000000000000000000000000000000000060003504166329803b21811461005b5780636f77926b146100f4578063bff1f9e114610200575b600080fd5b34801561006757600080fd5b506040805160206004803580820135601f81018490048402850184019095528484526100f294369492936024939284019190819084018382808284375050604080516020601f89358b018035918201839004830284018301909452808352979a9998810197919650918201945092508291508401838280828437509497506102279650505050505050565b005b34801561010057600080fd5b5061012273ffffffffffffffffffffffffffffffffffffffff60043516610298565b604051808060200180602001838103835285818151815260200191508051906020019080838360005b8381101561016357818101518382015260200161014b565b50505050905090810190601f1680156101905780820380516001836020036101000a031916815260200191505b50838103825284518152845160209182019186019080838360005b838110156101c35781810151838201526020016101ab565b50505050905090810190601f1680156101f05780820380516001836020036101000a031916815260200191505b5094505050505060405180910390f35b34801561020c57600080fd5b50610215610428565b60408051918252519081900360200190f35b60006102323361042f565b1561023c57600080fd5b50336000908152602081815260409091208351909161025f91839186019061045a565b508151610275906001830190602085019061045a565b5050336000908152600160208190526040909120805460ff191690911790555050565b6060806102a36104d8565b6102ac3361042f565b15156102b757600080fd5b73ffffffffffffffffffffffffffffffffffffffff8416600090815260208181526040918290208251815460026001821615610100026000190190911604601f81018490049093028101606090810185529381018381529093919284928491908401828280156103685780601f1061033d57610100808354040283529160200191610368565b820191906000526020600020905b81548152906001019060200180831161034b57829003601f168201915b50505050508152602001600182018054600181600116156101000203166002900480601f01602080910402602001604051908101604052809291908181526020018280546001816001161561010002031660029004801561040a5780601f106103df5761010080835404028352916020019161040a565b820191906000526020600020905b8154815290600101906020018083116103ed57829003601f168201915b50505091909252505081516020909201519196919550909350505050565b6002545b90565b73ffffffffffffffffffffffffffffffffffffffff1660009081526001602052604090205460ff1690565b828054600181600116156101000203166002900490600052602060002090601f016020900481019282601f1061049b57805160ff19168380011785556104c8565b828001600101855582156104c8579182015b828111156104c85782518255916020019190600101906104ad565b506104d49291506104ef565b5090565b604080518082019091526060808252602082015290565b61042c91905b808211156104d457600081556001016104f55600a165627a7a72305820b11c458d3669a1c31d2db6305fabbf12db0f48f634ade632b72655014ec407c70029",
    "sourcePath": "/home/carlos/Escritorio/eth/ethereum/compile-and-deploy/contracts/UserContract.sol",
    "compiler": {
        "name": "solc",
        "version": "0.4.24+commit.e67f0147"
    },
    "functionHashes": {
        "getUser(address)": "6f77926b",
        "join(string,string)": "29803b21",
        "totalUsers()": "bff1f9e1"
    },
    "gasEstimates": {
        "creation": {
            "codeDepositCost": "266600",
            "executionCost": "306",
            "totalCost": "266906"
        },
        "external": {
            "getUser(address)": "infinite",
            "join(string,string)": "infinite",
            "totalUsers()": "429"
        },
        "internal": {
            "userJoined(address)": "299"
        }
    }
}